:100000000C9442010C946A010C946A010C946A01EC
:100010000C946A010C946A010C946A010C946A01B4
:100020000C946A010C946A010C946A010C942406E5
:100030000C946A010C946A010C946A010C946A0194
:100040000C9482050C946A010C94F2050C94CC0576
:100050000C946A010C946A010C946A010C946A0174
:100060000C946A010C946A0150415F4D4158005054
:10007000415F484947480050415F4C4F570050414D
:100080005F4D494E0031362062697473003820623A
:100090006974730044697361626C6564006E5246F2
:1000A00032344C30312B006E524632344C303100F9
:1000B0003235304B42505300324D42505300314D97
:1000C000425053001112131415160A0B0C0D0E0F8B
:1000D000000102030405526164696F206861726463
:1000E00077617265206E6F7420726573706F6E64D5
:1000F000696E67005354415455530909203D20301F
:1001000078253032782052585F44523D257820546B
:10011000585F44533D2578204D41585F52543D254A
:10012000782052585F505F4E4F3D25782054585FDD
:1001300046554C4C3D25780D0A00504120506F77B4
:10014000657209203D2025530D0A007E0077006F5F
:10015000006800435243204C656E67746809203D77
:100160002025530D0A0094008D0085004D6F6465B5
:100170006C0909203D2025530D0A00A7009D00446D
:10018000617461205261746509203D2025530D0A78
:1001900000BE00B800B00044594E50442F464541BF
:1001A0005455524500434F4E464947090052465F59
:1001B00053455455500052465F43480900454E5F31
:1001C00052584144445200454E5F41410900525843
:1001D0005F50575F50302D360054585F41444452B1
:1001E000090052585F414444525F50322D3500524D
:1001F000585F414444525F50302D31006461746156
:100200005F746F5F726563656976653A2000000010
:1002100000080002010000030407000000000000C5
:1002200000000D0A00253032780020307800255378
:1002300009203D000D0A0020307825303278002555
:100240005309203D0000000000250028002B00007D
:10025000000000240027002A00040404040404040D
:100260000402020202020203030303030301020465
:100270000810204080010204081020010204081028
:100280002000E00611241FBECFEFD8E0DEBFCDBFB7
:1002900011E0A0E0B1E0E4E5F4E202C005900D92C7
:1002A000AA35B107D9F722E0AAE5B1E001C01D9255
:1002B000A23BB207E1F711E0C2E4D1E004C021970C
:1002C000FE010E941912C134D107C9F70E94D30759
:1002D0000C9428120C94000090E0FC01E359FD4FAF
:1002E0002491875A9D4FFC018491882399F090E0D6
:1002F000880F991FFC01E15BFD4FA591B491FC01B2
:10030000EB5BFD4F859194918FB7F894EC91E22BC4
:10031000EC938FBF089590E0FC01E25FFD4F2491C4
:10032000FC01E359FD4F3491FC01E75AFD4FE49184
:10033000EE23C9F0222339F0233001F1A8F4213053
:1003400019F1223029F1F0E0EE0FFF1FEB5BFD4FBA
:10035000A591B4918FB7F894EC91611126C03095B6
:100360003E233C938FBF08952730A9F02830C9F071
:10037000243049F7809180008F7D03C080918000F8
:100380008F7780938000DFCF84B58F7784BDDBCFFC
:1003900084B58F7DFBCF8091B0008F778093B000C4
:1003A000D2CF8091B0008F7DF9CF3E2BDACF9CB5B4
:1003B0009F7D9CBD9CB5937F9CBD9CB59C7F9CBD47
:1003C0009DB591609DBD682F809179020E948B013F
:1003D00086E090E00197F1F7089581E00C94D70151
:1003E00080E00C94D7013FB7F8948091610190911F
:1003F0006201A0916301B091640126B5A89B05C07C
:100400002F3F19F00196A11DB11D3FBFBA2FA92F93
:10041000982F8827BC01CD01620F711D811D911D90
:1004200043E0660F771F881F991F4A95D1F70895FB
:100430008F929F92AF92BF92CF92DF92EF92FF92F4
:100440004B015C010E94F3016B017C010E94F301EE
:100450006C197D098E099F09683E734081059105DD
:10046000A8F321E0821A9108A108B10888EEC80E0D
:1004700083E0D81EE11CF11C81149104A104B10495
:1004800029F7FF90EF90DF90CF90BF90AF909F90B3
:100490008F900895AF92BF92CF92DF92EF92FF922A
:1004A0000F931F93CF93DF936C017B018B01040F9C
:1004B000151FEB015E01AE18BF08C017D10759F038
:1004C0006991D601ED91FC910190F081E02DC6017A
:1004D0000995892B79F7C501DF91CF911F910F9174
:1004E000FF90EF90DF90CF90BF90AF900895FC0108
:1004F000538D448D252F30E0842F90E0821B930B89
:10050000541710F0CF96089501970895FC01918D2E
:10051000828D981761F0A28DAE0FBF2FB11D5D9631
:100520008C91928D9F5F9F73928F90E008958FEFD3
:100530009FEF0895FC01918D828D981731F0828D87
:10054000E80FF11D858D90E008958FEF9FEF0895DE
:10055000FC01918D228D892F90E0805C9F4F821B42
:1005600091098F739927089585E691E00E94A8026A
:1005700021E0892B09F420E0822F089580E090E0AB
:10058000892B29F00E94B40281110C940000089577
:10059000FC01A48DA80FB92FB11DA35ABF4F2C91F8
:1005A000848D90E001968F739927848FA689B789EF
:1005B0002C93A089B1898C91837080648C93938DE6
:1005C000848D981306C00288F389E02D80818F7D89
:1005D00080830895EF92FF920F931F93CF93DF9341
:1005E000EC0181E0888F9B8D8C8D98131AC0E8896F
:1005F000F989808185FF15C09FB7F894EE89FF893E
:100600006083E889F98980818370806480839FBFDB
:1006100081E090E0DF91CF911F910F91FF90EF90DB
:100620000895F62E0B8D10E00F5F1F4F0F731127EB
:10063000E02E8C8D8E110CC00FB607FCFACFE88926
:10064000F989808185FFF5CFCE010E94C802F1CFE4
:10065000EB8DEC0FFD2FF11DE35AFF4FF0829FB79A
:10066000F8940B8FEA89FB8980818062CFCF0F934A
:100670001F93CF93DF938C01D0E0C0E0F801EC0F23
:10068000FD1F6491662341F085E691E00E94EA0235
:10069000892B11F02196F2CFCE01DF91CF911F91DE
:1006A0000F910895CF93DF93EC01888D8823B9F0E3
:1006B000AA89BB89E889F9898C9185FD03C080816D
:1006C00086FD0DC00FB607FCF7CF8C9185FFF2CFEA
:1006D000808185FFEDCFCE010E94C802E9CFDF9176
:1006E000CF910895DF92EF92FF920F931F93CF93D4
:1006F000DF93EC01D62E7A01890188818C3008F0D5
:1007000066C0862F0E946C018881282F30E0F90195
:10071000EE0FFF1FE20FF31FEE5FFD4F9D2D9F7346
:100720006081607C692B608320E232E02E193F09F2
:1007300037FF02C02D5F3F4F35952795359527959B
:10074000298320E639E0201B310B37FF02C02D5FE3
:100750003F4F35952795359527952A832CE0622FB5
:100760000E940D12829FB001112430E020E0AB0105
:10077000420F531FFA01EE0FFF1FE40FF51FEE5F4C
:10078000FD4F908196FD16C02F5F3F4F2C303105F5
:1007900071F781110FC01092800082E08093810078
:1007A0001092850010928400B19A80916F0082604F
:1007B00080936F00E8818E2F90E0FC01EE0FFF1F09
:1007C000E80FF91FEE5FFD4F808180648083888190
:1007D000DF91CF911F910F91FF90EF90DF900895DF
:1007E0008EBD00000DB407FEFDCF8EB50895CF93EA
:1007F0000E94F00181EE0E94F003C82F0E94ED01DB
:100800008C2FCF910895CF93C82F0E94F0018C2F89
:100810008F710E94F0038FEF0E94F003C82F0E9497
:10082000ED018C2FCF910895CF93DF93C82FD62F52
:100830000E94F0018C2F8F7180620E94F003C82FFC
:100840008D2F0E94F0030E94ED018C2FDF91CF913C
:10085000089580E00E94030481FD0BC0682F626050
:1008600080E00E94140465E070E080E090E00C9469
:10087000180208950F931F93CF938C0186E00E9476
:100880000304C82FC77D02301105E1F4C0628BE973
:1008900090E0A0E0B0E08093850290938602A09360
:1008A0008702B09388026C2F86E00E94140486E0D1
:1008B0000E94030491E0C81390E0892FCF911F910B
:1008C0000F91089585E590E0A0E0B0E001301105BA
:1008D00011F7C86081E490E0A0E0B0E0DCCFEF92D7
:1008E000FF920F931F93CF93DF93C82F7B01142F99
:1008F0000E94F0018C2F8F7180620E94F003082FFC
:10090000E701115020F089910E94F003FACF0E9474
:10091000ED01802FDF91CF911F910F91FF90EF900C
:100920000895CF93C82F682F85E691E00E94EA02D0
:100930008C2FCC0F990BCF910895FC0101900020D2
:10094000E9F73197AF01481B590BBC0185E691E0EF
:100950000C944A0288E191E00C949D04FF920F935D
:100960001F93CF93DF93C62FD42F9F938F938FE343
:1009700092E09F938F930E949C0DDC0F0F900F903D
:100980000F900F9007E312E0CD1791F0FF24F3943E
:10099000FC0E8C2F0E9403041F928F931F930F93C2
:1009A0000E949C0D0F900F900F900F90CF2DECCFC9
:1009B00084E392E09F938F930E949C0D0F900F9081
:1009C000DF91CF911F910F91FF9008952F923F9249
:1009D0004F925F926F927F928F929F92AF92BF924F
:1009E000CF92DF92EF92FF920F931F93CF93DF93FB
:1009F0001F92CDB7DEB7962E342E4DB65EB69F93BE
:100A00008F938EE292E09F938F930E949C0D390CFE
:100A10000F900F900F900F908AE2C82E82E0D82E90
:100A200095E2A92E92E0B92E931409F44AC06DB64E
:100A30007EB620908402022D10E08DB79EB7801BF9
:100A4000910B0FB6F8949EBF0FBE8DBFEDB7FEB7EA
:100A500031967F01F1E0F90DF9830E94F001892DB3
:100A60008F710E94F00347012A948FEF281631F00E
:100A70000E94F003F40181934F01F6CF0E94ED0133
:100A8000DF92CF920E949C0D0E0D1F1D0F900F90B4
:100A9000015011090E151F0568F0F80180811F92A1
:100AA0008F93BF92AF920E949C0D0F900F900F906A
:100AB0000F90EECF0FB6F8947EBE0FBE6DBE99803C
:100AC000B3CF82E292E09F938F930E949C0D0F9090
:100AD0000F900FB6F8945EBE0FBE4DBE0F90DF9123
:100AE000CF911F910F91FF90EF90DF90CF90BF902B
:100AF000AF909F908F907F906F905F904F903F90BE
:100B00002F9008951F920F920FB60F9211242F93DA
:100B10003F938F939F93AF93BF9380915D0190918B
:100B20005E01A0915F01B091600130915C0126E00F
:100B3000230F2D3758F50296A11DB11D20935C019E
:100B400080935D0190935E01A0935F01B09360017B
:100B50008091610190916201A0916301B091640163
:100B60000196A11DB11D8093610190936201A09334
:100B70006301B0936401BF91AF919F918F913F91B9
:100B80002F910F900FBE0F901F90189529E8230FFB
:100B90000396A11DB11DD2CF1F920F920FB60F92D7
:100BA00011242F933F934F935F936F937F938F9372
:100BB0009F93AF93BF93EF93FF9385E691E00E94DD
:100BC000C802FF91EF91BF91AF919F918F917F915B
:100BD0006F915F914F913F912F910F900FBE0F90AA
:100BE0001F9018951F920F920FB60F9211242F93FA
:100BF0008F939F93EF93FF93E0917501F0917601AE
:100C00008081E0917B01F0917C0182FD1BC090818D
:100C100080917E018F5F8F7320917F01821741F059
:100C2000E0917E01F0E0EB59FE4F958F80937E01BD
:100C3000FF91EF919F918F912F910F900FBE0F9089
:100C40001F9018958081F4CF1F920F920FB60F92CC
:100C500011242F933F934F935F936F937F938F93C1
:100C60009F93AF93BF93CF93DF93EF93FF938091C5
:100C70005A01C0912602D0E087FF24C0109285005F
:100C80001092840080915A018F5F80935A01809165
:100C90005A01082E000C990B8C179D0724F48091A3
:100CA0005A018C30C4F180918400909185000496A3
:100CB00080329E4408F47AC080918400909185002F
:100CC000049676C080915A01082E000C990B8C175F
:100CD0009D07C4F6E0915A018E2FEE0F990BFC018F
:100CE000EE0FFF1FE80FF91FEE5FFD4F808186FFBB
:100CF000C9CFE0915A018E2FEE0F990BFC01EE0F38
:100D0000FF1FE80FF91FEE5FFD4F808160E08F73DA
:100D10000E948B01B7CF2091840030918500E09133
:100D20005A018E2FEE0F990BFC01EE0FFF1FE80FFB
:100D3000F91FEE5FFD4F81819281820F931F909387
:100D4000890080938800E0915A018E2FEE0F990B55
:100D5000FC01EE0FFF1FE80FF91FEE5FFD4F8081D2
:100D600086FF11C0E0915A018E2FEE0F990BFC0106
:100D7000EE0FFF1FE80FF91FEE5FFD4F808161E06E
:100D80008F730E948B01FF91EF91DF91CF91BF9103
:100D9000AF919F918F917F916F915F914F913F9113
:100DA0002F910F900FBE0F901F90189580E29EE438
:100DB00090938900809388008FEF80935A01E3CF4E
:100DC000109268011092670188EE93E0A0E0B0E015
:100DD0008093690190936A01A0936B01B0936C01B9
:100DE0008AE091E0909366018093650185EC90E044
:100DF000909372018093710184EC90E09093740160
:100E00008093730180EC90E090937601809375015C
:100E100081EC90E0909378018093770182EC90E0F0
:100E200090937A018093790186EC90E090937C0115
:100E300080937B0110927E0110927F0110928001BD
:100E400010928101809126028C3008F0A4C091E0BC
:100E5000980F9093260280938A0290E0FC01EE0F97
:100E6000FF1FE80FF91FEE5FFD4F8CED95E09283B9
:100E70008183809126028C3008F091C091E0980F18
:100E80009093260280938D0290E0FC01EE0FFF1FED
:100E9000E80FF91FEE5FFD4F8CED95E092838183A3
:100EA0001092A40281E08093A50229E030E0309303
:100EB00091022093900225E030E03093930220933A
:100EC000920242E050E0509395024093940260ED0C
:100ED00077E0709399026093980268EE73E07093E4
:100EE00097026093960263E270E070939D026093B4
:100EF0009C026CE070E070939B0260939A0268E73A
:100F000070E070939F0260939E026AE570E07093B8
:100F1000A1026093A00269E670E07093A30260935F
:100F2000A2029AE09093780299E09093790210924D
:100F30007C0290E290937D0210927E0295E0909365
:100F4000840210927F02509328024093270243E0CC
:100F500050E050932A02409329024FE050E0509312
:100F60002C0240932B0230932E0220932D021092DC
:100F70002F028093500280935102E2E5F2E096E066
:100F8000DF011D929A95E9F78093520280935802EF
:100F90001092770208958FEF80938A026ACF8FEFC5
:100FA00080938D027DCFCF93DF93CDB7DEB7A3972C
:100FB0000FB6F894DEBF0FBECDBF789484B58260C3
:100FC00084BD84B5816084BD85B5826085BD85B5ED
:100FD000816085BD80916E00816080936E0010926B
:100FE00081008091810082608093810080918100E6
:100FF0008160809381008091800081608093800077
:101000008091B10084608093B1008091B0008160D4
:101010008093B00080917A00846080937A00809100
:101020007A00826080937A0080917A008E7F80932C
:101030007A0080917A00806880937A001092C100D3
:10104000E0917501F091760182E08083E091710179
:10105000F09172011082E0917301F091740187E6C2
:10106000808310927D01E0917901F0917A0186E010
:101070008083E0917701F0917801808180618083A5
:10108000E0917701F0917801808188608083E09120
:101090007701F0917801808180688083E091770109
:1010A000F091780180818F7D808370E060E081E93C
:1010B00094E00E94510D8BE191E00E949D040E94FA
:1010C000AA04609190027091910220E639E040E21A
:1010D00052E08AE892E00E947203209198023091D7
:1010E00099024091960250919702609192027091FC
:1010F00093028DE892E00E947203809194020E9414
:101100006C018CE291E00E949D040E94AA0420914F
:10111000960230919702E0918D02EC3070F540918B
:101120008E0288E890E0841B910947FD9395880F13
:10113000991F880F991F2817390784F040918F0253
:1011400088E592E0841B910947FD9395880F991FCC
:10115000880F991F281739070CF4C9014FB7F89465
:101160002E2F30E00297F901EE0FFF1FE20FF31F61
:10117000EE5FFD4F928381834FBF61E080919402C7
:101180000E948B011092A40284E00E946C011092D4
:10119000500281E0809351024AE050E070E060E04C
:1011A00087E391E00E945D0C60935D0270935C02A6
:1011B00080935B0290935A021092590280917802B8
:1011C0009091790289130E946C018091790290912B
:1011D000780298130E946C011FB7F89480915B010C
:1011E000811124C0E3E6F2E08491E7E7F2E0949114
:1011F000E82FF0E0EE0FFF1FE15BFD4FA591B491EA
:10120000EC91E92321F461E08AE00E948B018AE0FD
:101210000E946C018CB580618CBD8CB580648CBDE6
:101220008DE00E946C018BE00E946C0180915B015B
:101230008F5F80935B011FBF80917802909179024C
:10124000891719F060E00E948B0181E00E94D701AC
:1012500065E070E080E090E00E9418026CE080E0C1
:101260000E9414046FE584E00E94140482E090E080
:101270000E943A04882319F081E080937C0286E082
:101280000E940304182F90E080E00E943A040E941C
:10129000F00180E50E94F00383E70E94F0030E94C2
:1012A000ED0160E08DE10E94140460E08CE10E9499
:1012B000140460E787E00E9414046CE485E00E9457
:1012C00014040E94F00182EE0E94F0030E94ED01DE
:1012D0000E94F7030E94290480E00E940304682F03
:1012E0006E7F80E00E94140411501E3F38F086ED9E
:1012F00090E00E9437030E94AA04FFCF10912902B8
:1013000086E00E940304887F143008F0AFC1110FFB
:101310001F5F682F612B86E00E94140480912702D2
:10132000909128020E943A0460912D026295607F9C
:1013300080912B028F70682B84E00E9414048091AE
:101340002F02882329F18DE10E940304682F646035
:101350008DE10E9414048CE10E940304682F6F63E6
:101360008CE10E94140411E010937E028DE10E9432
:101370000304682F66608DE10E9414048CE10E94D2
:101380000304682F63608CE10E94140410937E02B2
:1013900080917702882309F46BC1809150028823E1
:1013A00099F04091840269E572E08AE00E946F043E
:1013B0004091840269E572E080E10E946F046091CF
:1013C0007D0281E10E94140480917802909179025B
:1013D000891719F060E00E948B018091850290913D
:1013E00086028330910528F0880F991F0497019792
:1013F000F1F78DE10E94030481FF0EC08091850208
:10140000909186028330910528F0880F991F0497E8
:101410000197F1F70E94F70380E00E940304682F10
:101420006E7F80E00E94140482E00E940304E0EDDD
:10143000F0E0E49161E070E001C0660FEA95EAF740
:10144000682B82E00E9414040E94AA040E94AA044D
:101450000E94F0018FEF0E94F003182F0E94ED010F
:10146000812F90E0212F21701F922F939C013595A1
:101470002795277033273F932F9314FB992790F9D3
:101480001F929F9315FB992790F91F929F9316FB2C
:10149000882780F91F928F931F921F9384EF90E00B
:1014A0009F938F930E949C0D42E06AE08FEE91E043
:1014B0000E94E60444E06CE082EE91E00E94AE04FB
:1014C00041E060E189ED91E00E94E60446E061E1DF
:1014D0008EEC91E00E94AE0441E061E087EC91E087
:1014E0000E94AE0441E062E08DEB91E00E94AE0408
:1014F00041E065E086EB91E00E94AE0441E066E0E9
:101500008DEA91E00E94AE0441E060E085EA91E05E
:101510000E94AE0442E06CE187E991E00E94AE04D3
:1015200086E00E94030488720FB6F894DEBF0FBEF7
:10153000CDBFE2E0F0E0803239F021E090E0883089
:1015400009F020E0E22FF92FEE0FFF1FEF56FE4FBC
:10155000859194919F938F938FE791E09F938F93C1
:101560000E949C0DE0917C02F0E0EE0FFF1FE55819
:10157000FE4F859194919F938F938CE691E09F937A
:101580008F930E949C0D80E00E940304182F81E03D
:101590000E9403040FB6F894DEBF0FBECDBF13FD4B
:1015A00004C0F0E0E0E0882331F0E2E0F0E012FD7A
:1015B00002C0E1E0F0E0EE0FFF1FEA59FE4F859117
:1015C00094919F938F9383E591E09F938F930E94D3
:1015D0009C0D86E00E940304E82FF0E0F595E79566
:1015E000E370F0E0EE0FFF1FE55BFE4F85919491F5
:1015F0009F938F938AE391E09F938F930E949C0D1A
:101600000E94AA040E94AA040FB6F894DEBF0FBE7F
:10161000CDBF5AE0852E912CA12CB12C00E010E01A
:1016200087E10E94030480FD26C180917D0292E043
:10163000E92E823008F4E82E90917E02F82EFE18F2
:101640009111F12C0E94F00181E60E94F0036E01DD
:1016500032E2C30ED11CEA948FEFE81609F4BCC045
:101660000E94F003F60181936F01F5CF17E051CE90
:1016700080915102882309F451C0F12CA5E0EA2E93
:10168000CC24C394D12C80915802F81608F046C09F
:10169000FE9CC00111249C01275A3D4F5901EF2D9A
:1016A000F0E0E95DFD4F03A501112DC040918402DA
:1016B00050E0B9018FE792E00E941F12E02FF0E0A6
:1016C000E653FF4F849140918402B5010E946F045C
:1016D00010E0F801EC53FF4F849160917D020E946D
:1016E000140482E00E940304F801E053FF4FE491E8
:1016F000B60101C0660FEA95EAF7682B82E00E9406
:101700001404F394C0CF0730E0F7E02FF0E0E65385
:10171000FF4F013099F2849141E0D7CF80912F02A1
:101720008823E9F080E2E2E4F1E0A0E3B2E0019096
:101730000D928A95E1F70E94F00189EA0E94F00378
:10174000F0E3EF2EF2E0FF2E11E2115031F0F7013D
:1017500081917F010E94F003F8CF0E94ED010E9469
:10176000290480E00E940304682F616080E00E94E9
:10177000140460E787E00E9414048091780290913D
:101780007902891719F061E00E948B0180917F0234
:10179000882379F0409184026FE772E08AE00E942A
:1017A0006F048DE10E94030481FF4ECE0E94F70377
:1017B0004BCE82E00E940304E0EDF0E0E49121E0F2
:1017C00030E001C0220FEA95EAF72095622F6823E6
:1017D00082E00E941404E5CFFA94FFEFFF1621F097
:1017E0008FEF0E94F003F8CF0E94ED0160E787E0E1
:1017F0000E9414048CEF91E00E943703CAA0DBA082
:101800000D2C000CEE08FF08F7FE41C06DE285E6E6
:1018100091E00E94EA0222273327A9012C193D09F1
:101820004E095F0919A2CE0181967C01CA01B90156
:10183000A50194010E949A11605DF70162937F01F6
:10184000211531054105510589F7E114F10419F01D
:10185000C7010E949D040E94AA0461E084E00E94E6
:101860008B0166E970E080E090E00E94180260E081
:1018700084E00E948B010115110509F4D1CE0E946C
:10188000B402882309F4CCCE0E940000C9CEA7017F
:10189000960119A2CE0181967C01CA01B901A50168
:1018A00094010E949A11605DF70162937F012115F6
:1018B00031054105510589F7C8CFB0E0A0E0E3E666
:1018C000FCE00C94C8115C016B017A016115710593
:1018D00019F0FB0191838083E114F10449F0C70101
:1018E0000297839728F060E070E0CB019CC05E0116
:1018F000E5012196F5011081812F90E00E94480DAD
:10190000892BA9F71D3209F056C02196F5011181E6
:1019100001E0E114F10409F4AEC0F0E1EF16F104C6
:1019200009F08EC0103341F488818F7D883509F02D
:1019300083C0198122960260E0E1EE2EF12C88240A
:101940008A94982CA82CFFE0BF2E20E060E070E085
:10195000CB0127010F2C000C66087708FE0150ED23
:10196000352E310E39E0331538F43FEB310F3A3173
:10197000A0F549EC342E310E3E141F04BCF52F3F68
:10198000B9F086169706A806B90670F1A301920170
:101990000E948A11232D30E050E040E0620F731F57
:1019A000841F951F6217730784079507E8F021E0ED
:1019B00021961081D3CF1B3221F4E5012296F50147
:1019C000118100E0A6CF78E0E72EF12C88248A94DC
:1019D000982CA82C6FE1B62EB8CF3FE9310F3A31E1
:1019E00028F439EA332EC7CF2FEFE2CFC114D10448
:1019F00031F02223E9F02197F601D183C08300FF63
:101A000007C090958095709561957F4F8F4F9F4F40
:101A10002F3F49F482E290E09093AD028093AC02B4
:101A20006FEF7FEFCB01CDB7DEB7E1E10C94E411AE
:101A300001FFE5CF2297E0CF10E3E114F10419F2A2
:101A40003AE0E316F104E9F080E1E816F10409F464
:101A500073CFE8E0EE16F10409F4B8CF6FEF7FEF33
:101A6000CB0197010F2C000C440B550B0E949A11CF
:101A700049015A016ACF103309F456CF9AE0E92E92
:101A8000F12C89E9882E982CA82C89E1B82E5DCFFD
:101A900091110C94DC10803219F089508550C8F7F0
:101AA00008950F931F93CF93DF93009759F4611517
:101AB000710541F4F0E0E0E0CF01DF91CF911F919B
:101AC0000F9108958B01EC016EE070E081E090E0F1
:101AD0000E949B0FFC01892B69F380E88383011529
:101AE000110571F01387028781E883838091A60234
:101AF0009091A702892B21F4F093A702E093A6020C
:101B00002097D1F2D187C0878381826083838091BF
:101B1000A8029091A902892B79F6F093A902E0938B
:101B2000A8028091AA029091AB02892B29F6F0932A
:101B3000AB02E093AA02C0CFB0E0A0E0E2EAFDE091
:101B40000C94D511AE01495F5F4FDA016D917D9123
:101B5000AD0106EA12E0F80182819381DC0113965F
:101B60002C911397286013962C930E94C10DD801D5
:101B70001296ED91FC912381277F2383E4E00C945E
:101B8000F111ABE0B0E0E7ECFDE00C94C7117C0193
:101B90003B018A01FC0117821682838181FFC8C143
:101BA000CE0101965C01F7019381F30193FD8591CC
:101BB00093FF81913F01882309F453C1853239F4A1
:101BC00093FD859193FF81913F01853229F4B701FF
:101BD00090E00E94FC10E7CF912C212C312CFFE1EA
:101BE000F31538F08B3211F190F4803209F1833221
:101BF00029F137FC3CC020ED280F2A3050F536FE85
:101C000020C08AE0989E200D1124922E06C08D32AD
:101C100091F0803371F7689430F8F30193FD85916A
:101C200093FF81913F018111DACF21C0689431F88F
:101C3000689432F8F2CF689433F8EFCF689434F8B0
:101C4000ECCFEAE02E9E200D1124222E689435F868
:101C5000E4CF8E3229F436FC04C1689436F8DDCF27
:101C60008C3619F4689437F8D8CF8836B1F2982FAB
:101C70009F7D95549330E0F08336A1F18337C1F115
:101C8000833509F063C02801F2E04F0E511CF801C2
:101C9000C080D180692D70E036FC02C06FEF7FEF0D
:101CA000C6010E94DF104C01689437F882010AC017
:101CB0000C5F1F4FFFE3F98388248394912C650107
:101CC000E89437F833FE2DC0522C8114910471F53D
:101CD000552009F468CFB70180E290E00E94FC1023
:101CE0005A94F6CFF801808189830E5F1F4FE4CFAD
:101CF0002801F2E04F0E511CF801C080D180692DFF
:101D000070E036FC02C06FEF7FEFC6010E94F11059
:101D10004C018201D5CFB70180E290E00E94FC1017
:101D20002A942814190409F0B0F7CECFF60137FC35
:101D3000859137FE81916F01B70190E00E94FC1000
:101D400051105A94F1E08F1A9108BFCF843619F0E0
:101D5000893609F077C0F80137FE6BC06081718168
:101D6000828193810C5F1F4FF32DFF763F2E97FFEB
:101D700009C090958095709561957F4F8F4F9F4FCB
:101D8000689437F82AE030E0A5010E942C11C82E93
:101D9000CA188C2C432C36FE0CC0E89440F8C914A9
:101DA00040F434FE05C032FC03C0F32DFE7E4F2EFE
:101DB000892C44FE95C0FE01EC0DF11D808180331D
:101DC00009F087C0242D297E422E842D8870582E3C
:101DD00043FC95C040FE8FC09C2C821418F42C0C40
:101DE000922C981844FE91C0B70180E390E00E94C5
:101DF000FC1042FE09C088E790E041FE02C088E581
:101E000090E0B7010E94FC10C91408F48AC0CA947B
:101E1000D12C9FEFC91AD90ACA0CDB1CF60182919A
:101E20006F01B70190E00E94FC10AC14BD04B1F743
:101E30004FCF60817181072E000C880B990B0E5FCC
:101E40001F4F92CFD32CE894D4F82AE030E08537A6
:101E500039F1232D297FD22E8F3601F148F48835B0
:101E6000A9F0F701868197812B96E2E10C94E311AA
:101E7000803749F08837A9F7D4FE02C06894D2F8B9
:101E800020E130E00DC06894D4F8F6CF34FE03C0F2
:101E9000822F8660D82E20E132E002C028E030E0B8
:101EA000F801D7FE0FC060817181828193810C5F40
:101EB0001F4FA5010E942C11C82ECA183D2CE89472
:101EC00037F867CF6081718190E080E00E5F1F4F2F
:101ED000F0CF42FC02C0839478CF8394839475CF73
:101EE000842D867809F471CFF6CFB70180E290E0B7
:101EF0000E94FC1083948214C0F3512C73CF522C97
:101F00005818821408F46ECFF8CF842D867809F41F
:101F10007BCF8BE241FE80E247FC8DE2B70190E08F
:101F200071CFB70180E390E00E94FC109A946CCFCF
:101F30008FEF9FEF99CF0F931F93CF93DF93869FE0
:101F40008001879F100D969F100D1124C8010E94DB
:101F5000B70FEC01009729F0A80170E060E00E9443
:101F6000EA10CE01DF91CF911F910F9108950F9349
:101F70001F93CF93DF938230910510F482E090E0BD
:101F8000E091B002F091B10230E020E0B0E0A0E0DA
:101F9000309799F42115310509F44AC0281B390BF3
:101FA00024303105D8F58A819B816115710589F14D
:101FB000FB0193838283FE0111C040815181028124
:101FC000138148175907E0F04817590799F41097FB
:101FD00061F012960C93129713961C933296CF01D0
:101FE000DF91CF911F910F9108950093B00210934C
:101FF000B102F4CF2115310551F04217530738F0E3
:10200000A901DB019A01BD01DF01F801C1CFEF0198
:10201000F9CF9093B1028093B002CDCFFE01E20FD1
:10202000F31F819391932250310939832883D7CFAD
:102030002091AE023091AF02232B41F42091020196
:10204000309103013093AF022093AE022091000142
:10205000309101012115310541F42DB73EB7409172
:10206000040150910501241B350BE091AE02F09163
:10207000AF02E217F307A0F42E1B3F0B2817390716
:1020800078F0AC014E5F5F4F2417350748F04E0FD4
:102090005F1F5093AF024093AE02819391939FCF05
:1020A000F0E0E0E09CCFCF93DF930097E9F0FC01F4
:1020B000329713821282A091B002B091B102ED0169
:1020C00030E020E01097A1F420813181820F931F2E
:1020D0002091AE023091AF022817390709F061C094
:1020E000F093AF02E093AE02DF91CF910895EA0141
:1020F000CE17DF07E8F54A815B819E014115510546
:10210000B1F7E901FB83EA8349915991C40FD51FC7
:10211000EC17FD0761F4808191810296840F951F71
:10212000E90199838883828193819B838A83F0E08C
:10213000E0E012968D919C9113970097B9F52D913F
:102140003C911197CD010296820F931F2091AE0210
:102150003091AF022817390739F6309751F51092B0
:10216000B1021092B002B093AF02A093AE02BCCF06
:10217000D383C28340815181840F951FC817D9072B
:1021800061F44E5F5F4F88819981480F591F5183D9
:1021900040838A819B81938382832115310509F0D5
:1021A000B0CFF093B102E093B0029ECFFD01DC010D
:1021B000C0CF13821282D7CF992788270895FC01B8
:1021C0000590615070400110D8F7809590958E0F62
:1021D0009F1F0895DC0101C06D9341505040E0F70E
:1021E0000895FC016150704001900110D8F780956E
:1021F00090958E0F9F1F08950F931F93CF93DF939A
:10220000182F092FEB018B8181FD09C01FEF0FEF04
:10221000812F902FDF91CF911F910F91089582FF11
:1022200014C02E813F818C819D81281739073CF491
:10223000E881F981CF0101969983888310838E818B
:102240009F8101969F838E83E3CFE885F985812F57
:102250000995892BA1F3DACFFA01AA27283051F189
:10226000203181F1E8946F936E7F6E5F7F4F8F4FC7
:102270009F4FAF4FB1E03ED0B4E03CD0670F781F26
:10228000891F9A1FA11D680F791F8A1F911DA11D0B
:102290006A0F711D811D911DA11D20D009F4689444
:1022A0003F912AE0269F11243019305D3193DEF6EC
:1022B000CF010895462F4770405D4193B3E00FD0A2
:1022C000C9F7F6CF462F4F70405D4A3318F0495D8D
:1022D00031FD4052419302D0A9F7EACFB4E0A69570
:1022E0009795879577956795BA95C9F70097610592
:1022F000710508959B01AC010A2E069457954795E8
:1023000037952795BA95C9F7620F731F841F951FDC
:10231000A01D0895DB018F939F930E94BC11BF9174
:10232000AF91A29F800D911DA39F900DB29F900D24
:1023300011240895A1E21A2EAA1BBB1BFD010DC09A
:10234000AA1FBB1FEE1FFF1FA217B307E407F50765
:1023500020F0A21BB30BE40BF50B661F771F881F41
:10236000991F1A9469F760957095809590959B01D7
:10237000AC01BD01CF0108950E94FE11A59F900DF3
:10238000B49F900DA49F800D911D112408952F924C
:102390003F924F925F926F927F928F929F92AF92F5
:1023A000BF92CF92DF92EF92FF920F931F93CF9342
:1023B000DF93CDB7DEB7CA1BDB0B0FB6F894DEBFD9
:1023C0000FBECDBF09942A88398848885F846E84FF
:1023D0007D848C849B84AA84B984C884DF80EE8049
:1023E000FD800C811B81AA81B981CE0FD11D0FB652
:1023F000F894DEBF0FBECDBFED010895A29FB001DE
:10240000B39FC001A39F700D811D1124911DB29F28
:10241000700D811D1124911D0895991B79E004C050
:10242000991F961708F0961B881F7A95C9F7809513
:102430000895EE0FFF1F0590F491E02D0994FB0124
:10244000DC0102C001900D9241505040D8F7089530
:04245000F894FFCF2E
:102454000000B202800000000000EA024A02770293
:102464005203A80286029A020D0A005557562069A3
:102474006E697469616C697A65642E0055575620DB
:1024840044697361726D0032323039313130303029
:10249400300044796E616D69632041636B20506143
:0A24A400796C6F616473204F6B00C8
:00000001FF
